:030000000208F7FC
:0C08F700787FE4F6D8FD75810702080048
:10080000C290C291D292D293C294C295D296C2970C
:10081000C2B7D2B4C2B5C2B67F207E031208D7C217
:1008200090D291C292D293C2941208C5D290C29132
:10083000C292C293C294D295D296C297C2B7D2B492
:10084000C2B5C2B67F207E031208D7D290C291C231
:1008500092C293D2941208C5D290C291C292D293FE
:10086000C294C295C296C297D2B7D2B4C2B5C2B62C
:100870007F207E031208D7D290C291C292D293C237
:1008800094C295C296D2971208CBD290C291C292CE
:10089000D293C294C295D296C297C2B7C2B4C2B51F
:1008A000D2B67F207E031208D7D290C291C292D2D4
:1008B00093C294C295D296C297C2B7C2B4D2B512AF
:0508C00008D102080050
:1008C500C295D296C297C2B7D2B4C2B5C2B67F2C72
:0208D5007E01A2
:1008D700E4FDFCC3ED9FEC9E5015E4FBFA0BBB0057
:0F08E700010ABA04F8BBFBF50DBD00010C80E45B
:0108F60022DF
:00000001FF
